{
	"@api3/airnode-protocol/contracts/rrp/requesters/RrpRequesterV0.sol": {
		"RrpRequesterV0": {
			"abi": [
				{
					"inputs": [
						{
							"internalType": "address",
							"name": "_airnodeRrp",
							"type": "address"
						}
					],
					"stateMutability": "nonpayable",
					"type": "constructor"
				},
				{
					"inputs": [],
					"name": "airnodeRrp",
					"outputs": [
						{
							"internalType": "contract IAirnodeRrpV0",
							"name": "",
							"type": "address"
						}
					],
					"stateMutability": "view",
					"type": "function"
				}
			],
			"devdoc": {
				"kind": "dev",
				"methods": {
					"constructor": {
						"details": "Airnode RRP address is set at deployment and is immutable. RrpRequester is made its own sponsor by default. RrpRequester can also be sponsored by others and use these sponsorships while making requests, i.e., using this default sponsorship is optional.",
						"params": {
							"_airnodeRrp": "Airnode RRP contract address"
						}
					}
				},
				"title": "The contract to be inherited to make Airnode RRP requests",
				"version": 1
			},
			"evm": {
				"assembly": "    /* \"@api3/airnode-protocol/contracts/rrp/requesters/RrpRequesterV0.sol\":169:1063  contract RrpRequesterV0 {... */\n  mstore(0x40, 0xa0)\n    /* \"@api3/airnode-protocol/contracts/rrp/requesters/RrpRequesterV0.sol\":894:1061  constructor(address _airnodeRrp) {... */\n  callvalue\n  dup1\n  iszero\n  tag_1\n  jumpi\n  0x00\n  dup1\n  revert\ntag_1:\n  pop\n  mload(0x40)\n  sub(codesize, bytecodeSize)\n  dup1\n  bytecodeSize\n  dup4\n  codecopy\n  dup2\n  dup2\n  add\n  0x40\n  mstore\n  dup2\n  add\n  swap1\n  tag_2\n  swap2\n  swap1\n  tag_3\n  jump\t// in\ntag_2:\n    /* \"@api3/airnode-protocol/contracts/rrp/requesters/RrpRequesterV0.sol\":964:975  _airnodeRrp */\n  dup1\n    /* \"@api3/airnode-protocol/contracts/rrp/requesters/RrpRequesterV0.sol\":937:976  airnodeRrp = IAirnodeRrpV0(_airnodeRrp) */\n  0xffffffffffffffffffffffffffffffffffffffff\n  and\n  0x80\n  dup2\n  0xffffffffffffffffffffffffffffffffffffffff\n  and\n  dup2\n  mstore\n  pop\n  pop\n    /* \"@api3/airnode-protocol/contracts/rrp/requesters/RrpRequesterV0.sol\":1000:1011  _airnodeRrp */\n  dup1\n    /* \"@api3/airnode-protocol/contracts/rrp/requesters/RrpRequesterV0.sol\":986:1033  IAirnodeRrpV0(_airnodeRrp).setSponsorshipStatus */\n  0xffffffffffffffffffffffffffffffffffffffff\n  and\n  0xaddf027c\n    /* \"@api3/airnode-protocol/contracts/rrp/requesters/RrpRequesterV0.sol\":1042:1046  this */\n  address\n    /* \"@api3/airnode-protocol/contracts/rrp/requesters/RrpRequesterV0.sol\":1049:1053  true */\n  0x01\n    /* \"@api3/airnode-protocol/contracts/rrp/requesters/RrpRequesterV0.sol\":986:1054  IAirnodeRrpV0(_airnodeRrp).setSponsorshipStatus(address(this), true) */\n  mload(0x40)\n  dup4\n  0xffffffff\n  and\n  0xe0\n  shl\n  dup2\n  mstore\n  0x04\n  add\n  tag_6\n  swap3\n  swap2\n  swap1\n  tag_7\n  jump\t// in\ntag_6:\n  0x00\n  mload(0x40)\n  dup1\n  dup4\n  sub\n  dup2\n  0x00\n  dup8\n  dup1\n  extcodesize\n  iszero\n  dup1\n  iszero\n  tag_8\n  jumpi\n  0x00\n  dup1\n  revert\ntag_8:\n  pop\n  gas\n  call\n  iszero\n  dup1\n  iszero\n  tag_10\n  jumpi\n  returndatasize\n  0x00\n  dup1\n  returndatacopy\n  revert(0x00, returndatasize)\ntag_10:\n  pop\n  pop\n  pop\n  pop\n    /* \"@api3/airnode-protocol/contracts/rrp/requesters/RrpRequesterV0.sol\":894:1061  constructor(address _airnodeRrp) {... */\n  pop\n    /* \"@api3/airnode-protocol/contracts/rrp/requesters/RrpRequesterV0.sol\":169:1063  contract RrpRequesterV0 {... */\n  jump(tag_11)\n    /* \"#utility.yul\":88:205   */\ntag_13:\n    /* \"#utility.yul\":197:198   */\n  0x00\n    /* \"#utility.yul\":194:195   */\n  dup1\n    /* \"#utility.yul\":187:199   */\n  revert\n    /* \"#utility.yul\":334:460   */\ntag_15:\n    /* \"#utility.yul\":371:378   */\n  0x00\n    /* \"#utility.yul\":411:453   */\n  0xffffffffffffffffffffffffffffffffffffffff\n    /* \"#utility.yul\":404:409   */\n  dup3\n    /* \"#utility.yul\":400:454   */\n  and\n    /* \"#utility.yul\":389:454   */\n  swap1\n  pop\n    /* \"#utility.yul\":334:460   */\n  swap2\n  swap1\n  pop\n  jump\t// out\n    /* \"#utility.yul\":466:562   */\ntag_16:\n    /* \"#utility.yul\":503:510   */\n  0x00\n    /* \"#utility.yul\":532:556   */\n  tag_28\n    /* \"#utility.yul\":550:555   */\n  dup3\n    /* \"#utility.yul\":532:556   */\n  tag_15\n  jump\t// in\ntag_28:\n    /* \"#utility.yul\":521:556   */\n  swap1\n  pop\n    /* \"#utility.yul\":466:562   */\n  swap2\n  swap1\n  pop\n  jump\t// out\n    /* \"#utility.yul\":568:690   */\ntag_17:\n    /* \"#utility.yul\":641:665   */\n  tag_30\n    /* \"#utility.yul\":659:664   */\n  dup2\n    /* \"#utility.yul\":641:665   */\n  tag_16\n  jump\t// in\ntag_30:\n    /* \"#utility.yul\":634:639   */\n  dup2\n    /* \"#utility.yul\":631:666   */\n  eq\n    /* \"#utility.yul\":621:684   */\n  tag_31\n  jumpi\n    /* \"#utility.yul\":680:681   */\n  0x00\n    /* \"#utility.yul\":677:678   */\n  dup1\n    /* \"#utility.yul\":670:682   */\n  revert\n    /* \"#utility.yul\":621:684   */\ntag_31:\n    /* \"#utility.yul\":568:690   */\n  pop\n  jump\t// out\n    /* \"#utility.yul\":696:839   */\ntag_18:\n    /* \"#utility.yul\":753:758   */\n  0x00\n    /* \"#utility.yul\":784:790   */\n  dup2\n    /* \"#utility.yul\":778:791   */\n  mload\n    /* \"#utility.yul\":769:791   */\n  swap1\n  pop\n    /* \"#utility.yul\":800:833   */\n  tag_33\n    /* \"#utility.yul\":827:832   */\n  dup2\n    /* \"#utility.yul\":800:833   */\n  tag_17\n  jump\t// in\ntag_33:\n    /* \"#utility.yul\":696:839   */\n  swap3\n  swap2\n  pop\n  pop\n  jump\t// out\n    /* \"#utility.yul\":845:1196   */\ntag_3:\n    /* \"#utility.yul\":915:921   */\n  0x00\n    /* \"#utility.yul\":964:966   */\n  0x20\n    /* \"#utility.yul\":952:961   */\n  dup3\n    /* \"#utility.yul\":943:950   */\n  dup5\n    /* \"#utility.yul\":939:962   */\n  sub\n    /* \"#utility.yul\":935:967   */\n  slt\n    /* \"#utility.yul\":932:1051   */\n  iszero\n  tag_35\n  jumpi\n    /* \"#utility.yul\":970:1049   */\n  tag_36\n  tag_13\n  jump\t// in\ntag_36:\n    /* \"#utility.yul\":932:1051   */\ntag_35:\n    /* \"#utility.yul\":1090:1091   */\n  0x00\n    /* \"#utility.yul\":1115:1179   */\n  tag_37\n    /* \"#utility.yul\":1171:1178   */\n  dup5\n    /* \"#utility.yul\":1162:1168   */\n  dup3\n    /* \"#utility.yul\":1151:1160   */\n  dup6\n    /* \"#utility.yul\":1147:1169   */\n  add\n    /* \"#utility.yul\":1115:1179   */\n  tag_18\n  jump\t// in\ntag_37:\n    /* \"#utility.yul\":1105:1179   */\n  swap2\n  pop\n    /* \"#utility.yul\":1061:1189   */\n  pop\n    /* \"#utility.yul\":845:1196   */\n  swap3\n  swap2\n  pop\n  pop\n  jump\t// out\n    /* \"#utility.yul\":1202:1320   */\ntag_19:\n    /* \"#utility.yul\":1289:1313   */\n  tag_39\n    /* \"#utility.yul\":1307:1312   */\n  dup2\n    /* \"#utility.yul\":1289:1313   */\n  tag_16\n  jump\t// in\ntag_39:\n    /* \"#utility.yul\":1284:1287   */\n  dup3\n    /* \"#utility.yul\":1277:1314   */\n  mstore\n    /* \"#utility.yul\":1202:1320   */\n  pop\n  pop\n  jump\t// out\n    /* \"#utility.yul\":1326:1416   */\ntag_20:\n    /* \"#utility.yul\":1360:1367   */\n  0x00\n    /* \"#utility.yul\":1403:1408   */\n  dup2\n    /* \"#utility.yul\":1396:1409   */\n  iszero\n    /* \"#utility.yul\":1389:1410   */\n  iszero\n    /* \"#utility.yul\":1378:1410   */\n  swap1\n  pop\n    /* \"#utility.yul\":1326:1416   */\n  swap2\n  swap1\n  pop\n  jump\t// out\n    /* \"#utility.yul\":1422:1531   */\ntag_21:\n    /* \"#utility.yul\":1503:1524   */\n  tag_42\n    /* \"#utility.yul\":1518:1523   */\n  dup2\n    /* \"#utility.yul\":1503:1524   */\n  tag_20\n  jump\t// in\ntag_42:\n    /* \"#utility.yul\":1498:1501   */\n  dup3\n    /* \"#utility.yul\":1491:1525   */\n  mstore\n    /* \"#utility.yul\":1422:1531   */\n  pop\n  pop\n  jump\t// out\n    /* \"#utility.yul\":1537:1857   */\ntag_7:\n    /* \"#utility.yul\":1652:1656   */\n  0x00\n    /* \"#utility.yul\":1690:1692   */\n  0x40\n    /* \"#utility.yul\":1679:1688   */\n  dup3\n    /* \"#utility.yul\":1675:1693   */\n  add\n    /* \"#utility.yul\":1667:1693   */\n  swap1\n  pop\n    /* \"#utility.yul\":1703:1774   */\n  tag_44\n    /* \"#utility.yul\":1771:1772   */\n  0x00\n    /* \"#utility.yul\":1760:1769   */\n  dup4\n    /* \"#utility.yul\":1756:1773   */\n  add\n    /* \"#utility.yul\":1747:1753   */\n  dup6\n    /* \"#utility.yul\":1703:1774   */\n  tag_19\n  jump\t// in\ntag_44:\n    /* \"#utility.yul\":1784:1850   */\n  tag_45\n    /* \"#utility.yul\":1846:1848   */\n  0x20\n    /* \"#utility.yul\":1835:1844   */\n  dup4\n    /* \"#utility.yul\":1831:1849   */\n  add\n    /* \"#utility.yul\":1822:1828   */\n  dup5\n    /* \"#utility.yul\":1784:1850   */\n  tag_21\n  jump\t// in\ntag_45:\n    /* \"#utility.yul\":1537:1857   */\n  swap4\n  swap3\n  pop\n  pop\n  pop\n  jump\t// out\n    /* \"@api3/airnode-protocol/contracts/rrp/requesters/RrpRequesterV0.sol\":169:1063  contract RrpRequesterV0 {... */\ntag_11:\n  mload(0x80)\n  codecopy(0x00, dataOffset(sub_0), dataSize(sub_0))\n  0x00\n  assignImmutable(\"0xb54132232922229e38cc95c863488521e95e5e7a61a99a0c1f7114e9af332ed3\")\n  return(0x00, dataSize(sub_0))\nstop\n\nsub_0: assembly {\n        /* \"@api3/airnode-protocol/contracts/rrp/requesters/RrpRequesterV0.sol\":169:1063  contract RrpRequesterV0 {... */\n      mstore(0x40, 0x80)\n      callvalue\n      dup1\n      iszero\n      tag_1\n      jumpi\n      0x00\n      dup1\n      revert\n    tag_1:\n      pop\n      jumpi(tag_2, lt(calldatasize, 0x04))\n      shr(0xe0, calldataload(0x00))\n      dup1\n      0x71bab666\n      eq\n      tag_3\n      jumpi\n    tag_2:\n      0x00\n      dup1\n      revert\n        /* \"@api3/airnode-protocol/contracts/rrp/requesters/RrpRequesterV0.sol\":199:240  IAirnodeRrpV0 public immutable airnodeRrp */\n    tag_3:\n      tag_4\n      tag_5\n      jump\t// in\n    tag_4:\n      mload(0x40)\n      tag_6\n      swap2\n      swap1\n      tag_7\n      jump\t// in\n    tag_6:\n      mload(0x40)\n      dup1\n      swap2\n      sub\n      swap1\n      return\n    tag_5:\n      immutable(\"0xb54132232922229e38cc95c863488521e95e5e7a61a99a0c1f7114e9af332ed3\")\n      dup2\n      jump\t// out\n        /* \"#utility.yul\":7:133   */\n    tag_8:\n        /* \"#utility.yul\":44:51   */\n      0x00\n        /* \"#utility.yul\":84:126   */\n      0xffffffffffffffffffffffffffffffffffffffff\n        /* \"#utility.yul\":77:82   */\n      dup3\n        /* \"#utility.yul\":73:127   */\n      and\n        /* \"#utility.yul\":62:127   */\n      swap1\n      pop\n        /* \"#utility.yul\":7:133   */\n      swap2\n      swap1\n      pop\n      jump\t// out\n        /* \"#utility.yul\":139:199   */\n    tag_9:\n        /* \"#utility.yul\":167:170   */\n      0x00\n        /* \"#utility.yul\":188:193   */\n      dup2\n        /* \"#utility.yul\":181:193   */\n      swap1\n      pop\n        /* \"#utility.yul\":139:199   */\n      swap2\n      swap1\n      pop\n      jump\t// out\n        /* \"#utility.yul\":205:347   */\n    tag_10:\n        /* \"#utility.yul\":255:264   */\n      0x00\n        /* \"#utility.yul\":288:341   */\n      tag_18\n        /* \"#utility.yul\":306:340   */\n      tag_19\n        /* \"#utility.yul\":315:339   */\n      tag_20\n        /* \"#utility.yul\":333:338   */\n      dup5\n        /* \"#utility.yul\":315:339   */\n      tag_8\n      jump\t// in\n    tag_20:\n        /* \"#utility.yul\":306:340   */\n      tag_9\n      jump\t// in\n    tag_19:\n        /* \"#utility.yul\":288:341   */\n      tag_8\n      jump\t// in\n    tag_18:\n        /* \"#utility.yul\":275:341   */\n      swap1\n      pop\n        /* \"#utility.yul\":205:347   */\n      swap2\n      swap1\n      pop\n      jump\t// out\n        /* \"#utility.yul\":353:479   */\n    tag_11:\n        /* \"#utility.yul\":403:412   */\n      0x00\n        /* \"#utility.yul\":436:473   */\n      tag_22\n        /* \"#utility.yul\":467:472   */\n      dup3\n        /* \"#utility.yul\":436:473   */\n      tag_10\n      jump\t// in\n    tag_22:\n        /* \"#utility.yul\":423:473   */\n      swap1\n      pop\n        /* \"#utility.yul\":353:479   */\n      swap2\n      swap1\n      pop\n      jump\t// out\n        /* \"#utility.yul\":485:632   */\n    tag_12:\n        /* \"#utility.yul\":556:565   */\n      0x00\n        /* \"#utility.yul\":589:626   */\n      tag_24\n        /* \"#utility.yul\":620:625   */\n      dup3\n        /* \"#utility.yul\":589:626   */\n      tag_11\n      jump\t// in\n    tag_24:\n        /* \"#utility.yul\":576:626   */\n      swap1\n      pop\n        /* \"#utility.yul\":485:632   */\n      swap2\n      swap1\n      pop\n      jump\t// out\n        /* \"#utility.yul\":638:811   */\n    tag_13:\n        /* \"#utility.yul\":746:804   */\n      tag_26\n        /* \"#utility.yul\":798:803   */\n      dup2\n        /* \"#utility.yul\":746:804   */\n      tag_12\n      jump\t// in\n    tag_26:\n        /* \"#utility.yul\":741:744   */\n      dup3\n        /* \"#utility.yul\":734:805   */\n      mstore\n        /* \"#utility.yul\":638:811   */\n      pop\n      pop\n      jump\t// out\n        /* \"#utility.yul\":817:1081   */\n    tag_7:\n        /* \"#utility.yul\":931:935   */\n      0x00\n        /* \"#utility.yul\":969:971   */\n      0x20\n        /* \"#utility.yul\":958:967   */\n      dup3\n        /* \"#utility.yul\":954:972   */\n      add\n        /* \"#utility.yul\":946:972   */\n      swap1\n      pop\n        /* \"#utility.yul\":982:1074   */\n      tag_28\n        /* \"#utility.yul\":1071:1072   */\n      0x00\n        /* \"#utility.yul\":1060:1069   */\n      dup4\n        /* \"#utility.yul\":1056:1073   */\n      add\n        /* \"#utility.yul\":1047:1053   */\n      dup5\n        /* \"#utility.yul\":982:1074   */\n      tag_13\n      jump\t// in\n    tag_28:\n        /* \"#utility.yul\":817:1081   */\n      swap3\n      swap2\n      pop\n      pop\n      jump\t// out\n\n    auxdata: 0xa2646970667358221220ee6999e25baf86b5ed67e01addfc3931a155bddfeb01799857eec0c782dd5b3064736f6c63430008140033\n}\n",
				"bytecode": {
					"linkReferences": {},
					"object": "60a060405234801561000f575f80fd5b506040516102e73803806102e783398181016040528101906100319190610132565b8073ffffffffffffffffffffffffffffffffffffffff1660808173ffffffffffffffffffffffffffffffffffffffff16815250508073ffffffffffffffffffffffffffffffffffffffff1663addf027c3060016040518363ffffffff1660e01b81526004016100a1929190610186565b5f604051808303815f87803b1580156100b8575f80fd5b505af11580156100ca573d5f803e3d5ffd5b50505050506101ad565b5f80fd5b5f73ffffffffffffffffffffffffffffffffffffffff82169050919050565b5f610101826100d8565b9050919050565b610111816100f7565b811461011b575f80fd5b50565b5f8151905061012c81610108565b92915050565b5f60208284031215610147576101466100d4565b5b5f6101548482850161011e565b91505092915050565b610166816100f7565b82525050565b5f8115159050919050565b6101808161016c565b82525050565b5f6040820190506101995f83018561015d565b6101a66020830184610177565b9392505050565b6080516101236101c45f395f604601526101235ff3fe6080604052348015600e575f80fd5b50600436106026575f3560e01c806371bab66614602a575b5f80fd5b60306044565b604051603b919060d6565b60405180910390f35b7f000000000000000000000000000000000000000000000000000000000000000081565b5f73ffffffffffffffffffffffffffffffffffffffff82169050919050565b5f819050919050565b5f60a460a0609c846068565b6087565b6068565b9050919050565b5f60b3826090565b9050919050565b5f60c28260ab565b9050919050565b60d08160ba565b82525050565b5f60208201905060e75f83018460c9565b9291505056fea2646970667358221220ee6999e25baf86b5ed67e01addfc3931a155bddfeb01799857eec0c782dd5b3064736f6c63430008140033",
					"opcodes": "PUSH1 0xA0 PUSH1 0x40 MSTORE CALLVALUE DUP1 ISZERO PUSH2 0xF JUMPI PUSH0 DUP1 REVERT JUMPDEST POP PUSH1 0x40 MLOAD PUSH2 0x2E7 CODESIZE SUB DUP1 PUSH2 0x2E7 DUP4 CODECOPY DUP2 DUP2 ADD PUSH1 0x40 MSTORE DUP2 ADD SWAP1 PUSH2 0x31 SWAP2 SWAP1 PUSH2 0x132 JUMP JUMPDEST DUP1 PUSH20 0xFFFFFFFFFFFFFFFFFFFFFFFFFFFFFFFFFFFFFFFF AND PUSH1 0x80 DUP2 PUSH20 0xFFFFFFFFFFFFFFFFFFFFFFFFFFFFFFFFFFFFFFFF AND DUP2 MSTORE POP POP DUP1 PUSH20 0xFFFFFFFFFFFFFFFFFFFFFFFFFFFFFFFFFFFFFFFF AND PUSH4 0xADDF027C ADDRESS PUSH1 0x1 PUSH1 0x40 MLOAD DUP4 PUSH4 0xFFFFFFFF AND PUSH1 0xE0 SHL DUP2 MSTORE PUSH1 0x4 ADD PUSH2 0xA1 SWAP3 SWAP2 SWAP1 PUSH2 0x186 JUMP JUMPDEST PUSH0 PUSH1 0x40 MLOAD DUP1 DUP4 SUB DUP2 PUSH0 DUP8 DUP1 EXTCODESIZE ISZERO DUP1 ISZERO PUSH2 0xB8 JUMPI PUSH0 DUP1 REVERT JUMPDEST POP GAS CALL ISZERO DUP1 ISZERO PUSH2 0xCA JUMPI RETURNDATASIZE PUSH0 DUP1 RETURNDATACOPY RETURNDATASIZE PUSH0 REVERT JUMPDEST POP POP POP POP POP PUSH2 0x1AD JUMP JUMPDEST PUSH0 DUP1 REVERT JUMPDEST PUSH0 PUSH20 0xFFFFFFFFFFFFFFFFFFFFFFFFFFFFFFFFFFFFFFFF DUP3 AND SWAP1 POP SWAP2 SWAP1 POP JUMP JUMPDEST PUSH0 PUSH2 0x101 DUP3 PUSH2 0xD8 JUMP JUMPDEST SWAP1 POP SWAP2 SWAP1 POP JUMP JUMPDEST PUSH2 0x111 DUP2 PUSH2 0xF7 JUMP JUMPDEST DUP2 EQ PUSH2 0x11B JUMPI PUSH0 DUP1 REVERT JUMPDEST POP JUMP JUMPDEST PUSH0 DUP2 MLOAD SWAP1 POP PUSH2 0x12C DUP2 PUSH2 0x108 JUMP JUMPDEST SWAP3 SWAP2 POP POP JUMP JUMPDEST PUSH0 PUSH1 0x20 DUP3 DUP5 SUB SLT ISZERO PUSH2 0x147 JUMPI PUSH2 0x146 PUSH2 0xD4 JUMP JUMPDEST JUMPDEST PUSH0 PUSH2 0x154 DUP5 DUP3 DUP6 ADD PUSH2 0x11E JUMP JUMPDEST SWAP2 POP POP SWAP3 SWAP2 POP POP JUMP JUMPDEST PUSH2 0x166 DUP2 PUSH2 0xF7 JUMP JUMPDEST DUP3 MSTORE POP POP JUMP JUMPDEST PUSH0 DUP2 ISZERO ISZERO SWAP1 POP SWAP2 SWAP1 POP JUMP JUMPDEST PUSH2 0x180 DUP2 PUSH2 0x16C JUMP JUMPDEST DUP3 MSTORE POP POP JUMP JUMPDEST PUSH0 PUSH1 0x40 DUP3 ADD SWAP1 POP PUSH2 0x199 PUSH0 DUP4 ADD DUP6 PUSH2 0x15D JUMP JUMPDEST PUSH2 0x1A6 PUSH1 0x20 DUP4 ADD DUP5 PUSH2 0x177 JUMP JUMPDEST SWAP4 SWAP3 POP POP POP JUMP JUMPDEST PUSH1 0x80 MLOAD PUSH2 0x123 PUSH2 0x1C4 PUSH0 CODECOPY PUSH0 PUSH1 0x46 ADD MSTORE PUSH2 0x123 PUSH0 RETURN INVALID PUSH1 0x80 PUSH1 0x40 MSTORE CALLVALUE DUP1 ISZERO PUSH1 0xE JUMPI PUSH0 DUP1 REVERT JUMPDEST POP PUSH1 0x4 CALLDATASIZE LT PUSH1 0x26 JUMPI PUSH0 CALLDATALOAD PUSH1 0xE0 SHR DUP1 PUSH4 0x71BAB666 EQ PUSH1 0x2A JUMPI JUMPDEST PUSH0 DUP1 REVERT JUMPDEST PUSH1 0x30 PUSH1 0x44 JUMP JUMPDEST PUSH1 0x40 MLOAD PUSH1 0x3B SWAP2 SWAP1 PUSH1 0xD6 JUMP JUMPDEST PUSH1 0x40 MLOAD DUP1 SWAP2 SUB SWAP1 RETURN JUMPDEST PUSH32 0x0 DUP2 JUMP JUMPDEST PUSH0 PUSH20 0xFFFFFFFFFFFFFFFFFFFFFFFFFFFFFFFFFFFFFFFF DUP3 AND SWAP1 POP SWAP2 SWAP1 POP JUMP JUMPDEST PUSH0 DUP2 SWAP1 POP SWAP2 SWAP1 POP JUMP JUMPDEST PUSH0 PUSH1 0xA4 PUSH1 0xA0 PUSH1 0x9C DUP5 PUSH1 0x68 JUMP JUMPDEST PUSH1 0x87 JUMP JUMPDEST PUSH1 0x68 JUMP JUMPDEST SWAP1 POP SWAP2 SWAP1 POP JUMP JUMPDEST PUSH0 PUSH1 0xB3 DUP3 PUSH1 0x90 JUMP JUMPDEST SWAP1 POP SWAP2 SWAP1 POP JUMP JUMPDEST PUSH0 PUSH1 0xC2 DUP3 PUSH1 0xAB JUMP JUMPDEST SWAP1 POP SWAP2 SWAP1 POP JUMP JUMPDEST PUSH1 0xD0 DUP2 PUSH1 0xBA JUMP JUMPDEST DUP3 MSTORE POP POP JUMP JUMPDEST PUSH0 PUSH1 0x20 DUP3 ADD SWAP1 POP PUSH1 0xE7 PUSH0 DUP4 ADD DUP5 PUSH1 0xC9 JUMP JUMPDEST SWAP3 SWAP2 POP POP JUMP INVALID LOG2 PUSH5 0x6970667358 0x22 SLT KECCAK256 0xEE PUSH10 0x99E25BAF86B5ED67E01A 0xDD 0xFC CODECOPY BALANCE LOG1 SSTORE 0xBD 0xDF 0xEB ADD PUSH26 0x9857EEC0C782DD5B3064736F6C63430008140033000000000000 "
				},
				"gasEstimates": {
					"creation": {
						"codeDepositCost": "58200",
						"executionCost": "infinite",
						"totalCost": "infinite"
					},
					"external": {
						"airnodeRrp()": "infinite"
					}
				},
				"methodIdentifiers": {
					"airnodeRrp()": "71bab666"
				}
			},
			"storageLayout": {
				"storage": [],
				"types": null
			},
			"userdoc": {
				"kind": "user",
				"methods": {},
				"version": 1
			}
		}
	}
}